{
  "abi": [
    {
      "type": "constructor",
      "inputs": [
        {
          "name": "_initialowner",
          "type": "address",
          "internalType": "address"
        },
        {
          "name": "_treasuryaddr",
          "type": "address",
          "internalType": "address"
        },
        {
          "name": "ult",
          "type": "address",
          "internalType": "address"
        },
        {
          "name": "usdt",
          "type": "address",
          "internalType": "address"
        },
        {
          "name": "dai",
          "type": "address",
          "internalType": "address"
        }
      ],
      "stateMutability": "nonpayable"
    },
    {
      "type": "fallback",
      "stateMutability": "payable"
    },
    {
      "type": "receive",
      "stateMutability": "payable"
    },
    {
      "type": "function",
      "name": "MAX_INTEREST_RATE",
      "inputs": [],
      "outputs": [
        {
          "name": "",
          "type": "uint256",
          "internalType": "uint256"
        }
      ],
      "stateMutability": "view"
    },
    {
      "type": "function",
      "name": "MAX_LOAN_AMOUNT",
      "inputs": [],
      "outputs": [
        {
          "name": "",
          "type": "uint256",
          "internalType": "uint256"
        }
      ],
      "stateMutability": "view"
    },
    {
      "type": "function",
      "name": "MIN_INTEREST_RATE",
      "inputs": [],
      "outputs": [
        {
          "name": "",
          "type": "uint256",
          "internalType": "uint256"
        }
      ],
      "stateMutability": "view"
    },
    {
      "type": "function",
      "name": "MIN_LOAN_AMOUNT",
      "inputs": [],
      "outputs": [
        {
          "name": "",
          "type": "uint256",
          "internalType": "uint256"
        }
      ],
      "stateMutability": "view"
    },
    {
      "type": "function",
      "name": "SERVICE_FEE_PERCENTAGE",
      "inputs": [],
      "outputs": [
        {
          "name": "",
          "type": "uint256",
          "internalType": "uint256"
        }
      ],
      "stateMutability": "view"
    },
    {
      "type": "function",
      "name": "accepted_collaterals",
      "inputs": [
        {
          "name": "",
          "type": "uint256",
          "internalType": "uint256"
        }
      ],
      "outputs": [
        {
          "name": "",
          "type": "address",
          "internalType": "address"
        }
      ],
      "stateMutability": "view"
    },
    {
      "type": "function",
      "name": "accepteddCollaterals",
      "inputs": [
        {
          "name": "",
          "type": "address",
          "internalType": "address"
        }
      ],
      "outputs": [
        {
          "name": "",
          "type": "bool",
          "internalType": "bool"
        }
      ],
      "stateMutability": "view"
    },
    {
      "type": "function",
      "name": "addCollateral",
      "inputs": [
        {
          "name": "_collateral",
          "type": "address",
          "internalType": "address"
        }
      ],
      "outputs": [],
      "stateMutability": "nonpayable"
    },
    {
      "type": "function",
      "name": "claimCollateral",
      "inputs": [
        {
          "name": "_loanId",
          "type": "uint256",
          "internalType": "uint256"
        }
      ],
      "outputs": [],
      "stateMutability": "nonpayable"
    },
    {
      "type": "function",
      "name": "createLoan",
      "inputs": [
        {
          "name": "_amount",
          "type": "uint256",
          "internalType": "uint256"
        },
        {
          "name": "_interest",
          "type": "uint256",
          "internalType": "uint256"
        },
        {
          "name": "_duration",
          "type": "uint256",
          "internalType": "uint256"
        },
        {
          "name": "_collateralamount",
          "type": "uint256",
          "internalType": "uint256"
        },
        {
          "name": "_collateral",
          "type": "address",
          "internalType": "address"
        },
        {
          "name": "_isERC20",
          "type": "bool",
          "internalType": "bool"
        },
        {
          "name": "_fundingDeadline",
          "type": "uint256",
          "internalType": "uint256"
        }
      ],
      "outputs": [],
      "stateMutability": "payable"
    },
    {
      "type": "function",
      "name": "dao",
      "inputs": [],
      "outputs": [
        {
          "name": "",
          "type": "address",
          "internalType": "address"
        }
      ],
      "stateMutability": "view"
    },
    {
      "type": "function",
      "name": "defaulters",
      "inputs": [
        {
          "name": "",
          "type": "address",
          "internalType": "address"
        }
      ],
      "outputs": [
        {
          "name": "",
          "type": "uint256",
          "internalType": "uint256"
        }
      ],
      "stateMutability": "view"
    },
    {
      "type": "function",
      "name": "fundLoan",
      "inputs": [
        {
          "name": "_loanId",
          "type": "uint256",
          "internalType": "uint256"
        }
      ],
      "outputs": [],
      "stateMutability": "payable"
    },
    {
      "type": "function",
      "name": "getAllLoans",
      "inputs": [],
      "outputs": [
        {
          "name": "",
          "type": "tuple[]",
          "internalType": "struct P2PLending.Loan[]",
          "components": [
            {
              "name": "loan_id",
              "type": "uint256",
              "internalType": "uint256"
            },
            {
              "name": "amount",
              "type": "uint256",
              "internalType": "uint256"
            },
            {
              "name": "interest",
              "type": "uint256",
              "internalType": "uint256"
            },
            {
              "name": "duration",
              "type": "uint256",
              "internalType": "uint256"
            },
            {
              "name": "repaymentAmount",
              "type": "uint256",
              "internalType": "uint256"
            },
            {
              "name": "fundingDeadline",
              "type": "uint256",
              "internalType": "uint256"
            },
            {
              "name": "collateralAmount",
              "type": "uint256",
              "internalType": "uint256"
            },
            {
              "name": "borrower",
              "type": "address",
              "internalType": "address"
            },
            {
              "name": "lender",
              "type": "address",
              "internalType": "address payable"
            },
            {
              "name": "collateral",
              "type": "address",
              "internalType": "address"
            },
            {
              "name": "isCollateralErc20",
              "type": "bool",
              "internalType": "bool"
            },
            {
              "name": "active",
              "type": "bool",
              "internalType": "bool"
            },
            {
              "name": "repaid",
              "type": "bool",
              "internalType": "bool"
            }
          ]
        }
      ],
      "stateMutability": "view"
    },
    {
      "type": "function",
      "name": "getLoanInfo",
      "inputs": [
        {
          "name": "_loanId",
          "type": "uint256",
          "internalType": "uint256"
        }
      ],
      "outputs": [
        {
          "name": "",
          "type": "tuple",
          "internalType": "struct P2PLending.Loan",
          "components": [
            {
              "name": "loan_id",
              "type": "uint256",
              "internalType": "uint256"
            },
            {
              "name": "amount",
              "type": "uint256",
              "internalType": "uint256"
            },
            {
              "name": "interest",
              "type": "uint256",
              "internalType": "uint256"
            },
            {
              "name": "duration",
              "type": "uint256",
              "internalType": "uint256"
            },
            {
              "name": "repaymentAmount",
              "type": "uint256",
              "internalType": "uint256"
            },
            {
              "name": "fundingDeadline",
              "type": "uint256",
              "internalType": "uint256"
            },
            {
              "name": "collateralAmount",
              "type": "uint256",
              "internalType": "uint256"
            },
            {
              "name": "borrower",
              "type": "address",
              "internalType": "address"
            },
            {
              "name": "lender",
              "type": "address",
              "internalType": "address payable"
            },
            {
              "name": "collateral",
              "type": "address",
              "internalType": "address"
            },
            {
              "name": "isCollateralErc20",
              "type": "bool",
              "internalType": "bool"
            },
            {
              "name": "active",
              "type": "bool",
              "internalType": "bool"
            },
            {
              "name": "repaid",
              "type": "bool",
              "internalType": "bool"
            }
          ]
        }
      ],
      "stateMutability": "view"
    },
    {
      "type": "function",
      "name": "loanCount",
      "inputs": [],
      "outputs": [
        {
          "name": "",
          "type": "uint256",
          "internalType": "uint256"
        }
      ],
      "stateMutability": "view"
    },
    {
      "type": "function",
      "name": "loans",
      "inputs": [
        {
          "name": "",
          "type": "uint256",
          "internalType": "uint256"
        }
      ],
      "outputs": [
        {
          "name": "loan_id",
          "type": "uint256",
          "internalType": "uint256"
        },
        {
          "name": "amount",
          "type": "uint256",
          "internalType": "uint256"
        },
        {
          "name": "interest",
          "type": "uint256",
          "internalType": "uint256"
        },
        {
          "name": "duration",
          "type": "uint256",
          "internalType": "uint256"
        },
        {
          "name": "repaymentAmount",
          "type": "uint256",
          "internalType": "uint256"
        },
        {
          "name": "fundingDeadline",
          "type": "uint256",
          "internalType": "uint256"
        },
        {
          "name": "collateralAmount",
          "type": "uint256",
          "internalType": "uint256"
        },
        {
          "name": "borrower",
          "type": "address",
          "internalType": "address"
        },
        {
          "name": "lender",
          "type": "address",
          "internalType": "address payable"
        },
        {
          "name": "collateral",
          "type": "address",
          "internalType": "address"
        },
        {
          "name": "isCollateralErc20",
          "type": "bool",
          "internalType": "bool"
        },
        {
          "name": "active",
          "type": "bool",
          "internalType": "bool"
        },
        {
          "name": "repaid",
          "type": "bool",
          "internalType": "bool"
        }
      ],
      "stateMutability": "view"
    },
    {
      "type": "function",
      "name": "outstanding",
      "inputs": [
        {
          "name": "",
          "type": "address",
          "internalType": "address"
        }
      ],
      "outputs": [
        {
          "name": "",
          "type": "bool",
          "internalType": "bool"
        }
      ],
      "stateMutability": "view"
    },
    {
      "type": "function",
      "name": "owner",
      "inputs": [],
      "outputs": [
        {
          "name": "",
          "type": "address",
          "internalType": "address"
        }
      ],
      "stateMutability": "view"
    },
    {
      "type": "function",
      "name": "renounceOwnership",
      "inputs": [],
      "outputs": [],
      "stateMutability": "nonpayable"
    },
    {
      "type": "function",
      "name": "repayLoan",
      "inputs": [
        {
          "name": "_loanId",
          "type": "uint256",
          "internalType": "uint256"
        }
      ],
      "outputs": [],
      "stateMutability": "payable"
    },
    {
      "type": "function",
      "name": "setadaoaddress",
      "inputs": [
        {
          "name": "_dao",
          "type": "address",
          "internalType": "address"
        }
      ],
      "outputs": [],
      "stateMutability": "nonpayable"
    },
    {
      "type": "function",
      "name": "totalServiceCharges",
      "inputs": [],
      "outputs": [
        {
          "name": "",
          "type": "uint256",
          "internalType": "uint256"
        }
      ],
      "stateMutability": "view"
    },
    {
      "type": "function",
      "name": "transferOwnership",
      "inputs": [
        {
          "name": "newOwner",
          "type": "address",
          "internalType": "address"
        }
      ],
      "outputs": [],
      "stateMutability": "nonpayable"
    },
    {
      "type": "function",
      "name": "treasuryAddress",
      "inputs": [],
      "outputs": [
        {
          "name": "",
          "type": "address",
          "internalType": "address"
        }
      ],
      "stateMutability": "view"
    },
    {
      "type": "function",
      "name": "withdrawFunds",
      "inputs": [
        {
          "name": "_loanId",
          "type": "uint256",
          "internalType": "uint256"
        }
      ],
      "outputs": [],
      "stateMutability": "nonpayable"
    },
    {
      "type": "event",
      "name": "CollateralAdded",
      "inputs": [
        {
          "name": "collateral",
          "type": "address",
          "indexed": false,
          "internalType": "address"
        }
      ],
      "anonymous": false
    },
    {
      "type": "event",
      "name": "CollateralClaimed",
      "inputs": [
        {
          "name": "loanId",
          "type": "uint256",
          "indexed": false,
          "internalType": "uint256"
        },
        {
          "name": "lender",
          "type": "address",
          "indexed": false,
          "internalType": "address"
        }
      ],
      "anonymous": false
    },
    {
      "type": "event",
      "name": "LoanCreated",
      "inputs": [
        {
          "name": "loanId",
          "type": "uint256",
          "indexed": false,
          "internalType": "uint256"
        },
        {
          "name": "amount",
          "type": "uint256",
          "indexed": false,
          "internalType": "uint256"
        },
        {
          "name": "interest",
          "type": "uint256",
          "indexed": false,
          "internalType": "uint256"
        },
        {
          "name": "duration",
          "type": "uint256",
          "indexed": false,
          "internalType": "uint256"
        },
        {
          "name": "fundingDeadline",
          "type": "uint256",
          "indexed": false,
          "internalType": "uint256"
        },
        {
          "name": "borrower",
          "type": "address",
          "indexed": false,
          "internalType": "address"
        },
        {
          "name": "lender",
          "type": "address",
          "indexed": false,
          "internalType": "address"
        }
      ],
      "anonymous": false
    },
    {
      "type": "event",
      "name": "LoanFunded",
      "inputs": [
        {
          "name": "loanId",
          "type": "uint256",
          "indexed": false,
          "internalType": "uint256"
        },
        {
          "name": "funder",
          "type": "address",
          "indexed": false,
          "internalType": "address"
        },
        {
          "name": "amount",
          "type": "uint256",
          "indexed": false,
          "internalType": "uint256"
        }
      ],
      "anonymous": false
    },
    {
      "type": "event",
      "name": "LoanRepaid",
      "inputs": [
        {
          "name": "loanId",
          "type": "uint256",
          "indexed": false,
          "internalType": "uint256"
        },
        {
          "name": "amount",
          "type": "uint256",
          "indexed": false,
          "internalType": "uint256"
        }
      ],
      "anonymous": false
    },
    {
      "type": "event",
      "name": "OwnershipTransferred",
      "inputs": [
        {
          "name": "previousOwner",
          "type": "address",
          "indexed": true,
          "internalType": "address"
        },
        {
          "name": "newOwner",
          "type": "address",
          "indexed": true,
          "internalType": "address"
        }
      ],
      "anonymous": false
    },
    {
      "type": "event",
      "name": "ServiceChargesWithdrawn",
      "inputs": [
        {
          "name": "owner",
          "type": "address",
          "indexed": false,
          "internalType": "address"
        },
        {
          "name": "amount",
          "type": "uint256",
          "indexed": false,
          "internalType": "uint256"
        }
      ],
      "anonymous": false
    },
    {
      "type": "event",
      "name": "ServiceFeeDeducted",
      "inputs": [
        {
          "name": "loanId",
          "type": "uint256",
          "indexed": false,
          "internalType": "uint256"
        },
        {
          "name": "amount",
          "type": "uint256",
          "indexed": false,
          "internalType": "uint256"
        }
      ],
      "anonymous": false
    },
    {
      "type": "error",
      "name": "OwnableInvalidOwner",
      "inputs": [
        {
          "name": "owner",
          "type": "address",
          "internalType": "address"
        }
      ]
    },
    {
      "type": "error",
      "name": "OwnableUnauthorizedAccount",
      "inputs": [
        {
          "name": "account",
          "type": "address",
          "internalType": "address"
        }
      ]
    }
  ],
  "bytecode": {
    "object": "0x60806040523480156200001157600080fd5b5060405162001fde38038062001fde833981016040819052620000349162000211565b846001600160a01b0381166200006457604051631e4fbdf760e01b81526000600482015260240160405180910390fd5b6200006f81620001a4565b50600780546001600160a01b0319166001600160a01b038616179055620000e5836001600160a01b03166000818152600460205260408120805460ff1916600190811790915560058054918201815590915260008051602062001fbe8339815191520180546001600160a01b0319169091179055565b6200013f826001600160a01b03166000818152600460205260408120805460ff1916600190811790915560058054918201815590915260008051602062001fbe8339815191520180546001600160a01b0319169091179055565b62000199816001600160a01b03166000818152600460205260408120805460ff1916600190811790915560058054918201815590915260008051602062001fbe8339815191520180546001600160a01b0319169091179055565b505050505062000281565b600080546001600160a01b038381166001600160a01b0319831681178455604051919092169283917f8be0079c531659141344cd1fd0a4f28419497f9722a3daafe3b4186f6b6457e09190a35050565b80516001600160a01b03811681146200020c57600080fd5b919050565b600080600080600060a086880312156200022a57600080fd5b6200023586620001f4565b94506200024560208701620001f4565b93506200025560408701620001f4565b92506200026560608701620001f4565b91506200027560808701620001f4565b90509295509295909350565b611d2d80620002916000396000f3fe6080604052600436106101735760003560e01c80638da5cb5b116100c8578063c918efec11610084578063de58bafa11610061578063de58bafa14610420578063e1ec3c6814610450578063f0d2d5a814610562578063f2fde38b1461058257005b8063c918efec1461026d578063ce63094d146103ee578063ceba17941461040457005b80638da5cb5b1461034057806396fa212f1461035e578063a5bfd16a14610379578063ab7b1c891461039b578063c49785b4146103ae578063c5f956af146103ce57005b806344cd13091161012f5780637f4bc0301161010c5780637f4bc030146102c4578063846b909a14610304578063859a5a6f146103175780638ca7e5941461032d57005b806344cd13091461026d5780635805600614610282578063715018a6146102af57005b806304d914451461017c5780630714012c1461019c578063155dd5ee146101d257806334855d14146101f25780633b81bc34146102155780634162169f1461024d57005b3661017a57005b005b34801561018857600080fd5b5061017a610197366004611986565b6105a2565b3480156101a857600080fd5b506101bc6101b73660046119a8565b6105cc565b6040516101c99190611a6b565b60405180910390f35b3480156101de57600080fd5b5061017a6101ed3660046119a8565b61069e565b3480156101fe57600080fd5b50610207601481565b6040519081526020016101c9565b34801561022157600080fd5b506102356102303660046119a8565b610894565b6040516001600160a01b0390911681526020016101c9565b34801561025957600080fd5b50600854610235906001600160a01b031681565b34801561027957600080fd5b50610207600281565b34801561028e57600080fd5b5061020761029d366004611986565b60026020526000908152604090205481565b3480156102bb57600080fd5b5061017a6108be565b3480156102d057600080fd5b506102f46102df366004611986565b60046020526000908152604090205460ff1681565b60405190151581526020016101c9565b61017a6103123660046119a8565b6108d2565b34801561032357600080fd5b5061020760095481565b61017a61033b366004611a8e565b610aa3565b34801561034c57600080fd5b506000546001600160a01b0316610235565b34801561036a57600080fd5b5061020766038d7ea4c6800081565b34801561038557600080fd5b5061038e610f88565b6040516101c99190611af5565b61017a6103a93660046119a8565b6110e3565b3480156103ba57600080fd5b5061017a6103c93660046119a8565b61148f565b3480156103da57600080fd5b50600754610235906001600160a01b031681565b3480156103fa57600080fd5b5061020760065481565b34801561041057600080fd5b50610207678ac7230489e8000081565b34801561042c57600080fd5b506102f461043b366004611986565b60036020526000908152604090205460ff1681565b34801561045c57600080fd5b506104eb61046b3660046119a8565b600160208190526000918252604090912080549181015460028201546003830154600484015460058501546006860154600787015460088801546009909801549697959694959394929391926001600160a01b039182169282169181169060ff600160a01b8204811691600160a81b8104821691600160b01b909104168d565b604080519d8e5260208e019c909c529a8c019990995260608b019790975260808a019590955260a089019390935260c08801919091526001600160a01b0390811660e0880152908116610100870152166101208501521515610140840152151561016083015215156101808201526101a0016101c9565b34801561056e57600080fd5b5061017a61057d366004611986565b611775565b34801561058e57600080fd5b5061017a61059d366004611986565b611826565b6105aa611864565b600880546001600160a01b0319166001600160a01b0392909216919091179055565b6105d46118e1565b5060009081526001602081815260409283902083516101a0810185528154815292810154918301919091526002810154928201929092526003820154606082015260048201546080820152600582015460a0820152600682015460c082015260078201546001600160a01b0390811660e08301526008830154811661010083015260099092015491821661012082015260ff600160a01b830481161515610140830152600160a81b830481161515610160830152600160b01b909204909116151561018082015290565b60008181526001602052604090206007015481906001600160a01b031633146106e25760405162461bcd60e51b81526004016106d990611b44565b60405180910390fd5b6000828152600160205260408120600681015490910361073a5760405162461bcd60e51b81526020600482015260136024820152721b9bc818dbdb1b185d195c985b08199bdd5b99606a1b60448201526064016106d9565b80600501544211156108705760098101805460ff60a81b191690819055600160a01b900460ff1615610804576009810154600682015460405163a9059cbb60e01b815233600482015260248101919091526001600160a01b039091169063a9059cbb906044016020604051808303816000875af11580156107bf573d6000803e3d6000fd5b505050506040513d601f19601f820116820180604052508101906107e39190611b8d565b6107ff5760405162461bcd60e51b81526004016106d990611baa565b610870565b600981015460068201546040516323b872dd60e01b81526001600160a01b03909216916323b872dd9161083d9130913391600401611bed565b600060405180830381600087803b15801561085757600080fd5b505af115801561086b573d6000803e3d6000fd5b505050505b6009810180546000600690930192909255600161ff0160a01b031990911690555050565b600581815481106108a457600080fd5b6000918252602090912001546001600160a01b0316905081565b6108c6611864565b6108d06000611891565b565b6000818152600160205260409020600901548190600160a81b900460ff1661090c5760405162461bcd60e51b81526004016106d990611c11565b600082815260016020526040902060078101546001600160a01b031633036109825760405162461bcd60e51b815260206004820152602360248201527f426f72726f7765722063616e6e6f742066756e64207468656972206f776e206c60448201526237b0b760e91b60648201526084016106d9565b80600501544211156109d75760098101805460ff60a81b1916905560405162461bcd60e51b815260206004820152600f60248201526e191958591b1a5b99481c185cdcd959608a1b60448201526064016106d9565b6001810154604051339180156108fc02916000818181858888f19350505050158015610a07573d6000803e3d6000fd5b506008810180546001600160a01b0319163390811790915560078201546001600160a01b0316600090815260036020908152604091829020805460ff1916600117905560098401805460ff60a81b1916600160a81b17905581518681529081019290925234908201527fbd7ef6c6281278f6c8ac4ae9ef2f205b52425813c288dd47c377cb6b59c5076e906060015b60405180910390a1505050565b6001600160a01b038316600090815260046020526040902054839060ff161515600114610b125760405162461bcd60e51b815260206004820152601960248201527f636f6c6c61746572616c206e6f742061636365707461626c650000000000000060448201526064016106d9565b66038d7ea4c680008810158015610b315750678ac7230489e800008811155b610ba35760405162461bcd60e51b815260206004820152603f60248201527f4c6f616e20616d6f756e74206d757374206265206265747765656e204d494e5f60448201527f4c4f414e5f414d4f554e5420616e64204d41585f4c4f414e5f414d4f554e540060648201526084016106d9565b60028710158015610bb5575060148711155b610c355760405162461bcd60e51b815260206004820152604560248201527f496e7465726573742072617465206d757374206265206265747765656e204d4960448201527f4e5f494e5445524553545f5241544520616e64204d41585f494e5445524553546064820152645f5241544560d81b608482015260a4016106d9565b60008611610c915760405162461bcd60e51b8152602060048201526024808201527f4c6f616e206475726174696f6e206d75737420626520677265617465722074686044820152630616e20360e41b60648201526084016106d9565b6006805460009182610ca283611c53565b90915550600081815260016020908152604080832060078101546001600160a01b031684526003909252909120549192509060ff1615610d245760405162461bcd60e51b815260206004820152601760248201527f736574746c65206f75747374616e64696e67206c6f616e00000000000000000060448201526064016106d9565b60006064610d328b8d611c6c565b610d3c9190611c83565b610d46908c611ca5565b600183018c9055838355600283018b90559050610d63428a611ca5565b60038301556009820180546001600160a01b0319166001600160a01b0389161790556006820188905560048201819055610d9d4286611ca5565b60058301556007820180546001600160a01b0319908116331790915560098301805460088501805490931690925560ff60b01b1960ff60a81b1989158015600160a01b029190911661ffff60a01b1990941693909317600160a81b17169055610ebc576040516323b872dd60e01b81526001600160a01b038816906323b872dd90610e3090339030908d90600401611bed565b6020604051808303816000875af1158015610e4f573d6000803e3d6000fd5b505050506040513d601f19601f82011682018060405250810190610e739190611b8d565b610eb75760405162461bcd60e51b8152602060048201526015602482015274115490cc8c081d1c985b9cd9995c8819985a5b1959605a1b60448201526064016106d9565b610f1f565b6040516323b872dd60e01b81526001600160a01b038816906323b872dd90610eec90339030908d90600401611bed565b600060405180830381600087803b158015610f0657600080fd5b505af1158015610f1a573d6000803e3d6000fd5b505050505b60408051848152602081018d90529081018b9052606081018a9052608081018690523360a0820152600060c08201527fd4fce9553ebe6cb45731cb4e5ac1f49ffa9d264d18bd0fb520a7b348529c6f7f9060e00160405180910390a15050505050505050505050565b6060600060065467ffffffffffffffff811115610fa757610fa7611cb8565b604051908082528060200260200182016040528015610fe057816020015b610fcd6118e1565b815260200190600190039081610fc55790505b50905060005b6006548110156110dd5760008181526001602081815260409283902083516101a0810185528154815292810154918301919091526002810154928201929092526003820154606082015260048201546080820152600582015460a0820152600682015460c082015260078201546001600160a01b0390811660e08301526008830154811661010083015260099092015491821661012082015260ff600160a01b830481161515610140830152600160a81b830481161515610160830152600160b01b909204909116151561018082015282518390839081106110ca576110ca611cce565b6020908102919091010152600101610fe6565b50919050565b6000818152600160205260409020600901548190600160a81b900460ff1661111d5760405162461bcd60e51b81526004016106d990611c11565b60008281526001602052604090206007015482906001600160a01b031633146111585760405162461bcd60e51b81526004016106d990611b44565b60008381526001602052604090206009810154600160b01b900460ff16156111c25760405162461bcd60e51b815260206004820152601c60248201527f4c6f616e2068617320616c7265616479206265656e207265706169640000000060448201526064016106d9565b60006064826002015483600101546111da9190611c6c565b6111e49190611c83565b905060008183600101546111f89190611ca5565b905060006064611209600284611c6c565b6112139190611c83565b905060006112218284611ce4565b60088601546040519192506001600160a01b03169082156108fc029083906000818181858888f1935050505015801561125e573d6000803e3d6000fd5b506007546040516001600160a01b039091169083156108fc029084906000818181858888f19350505050158015611299573d6000803e3d6000fd5b506009850154600160a01b900460ff161561134c576009850154600686015460405163a9059cbb60e01b815233600482015260248101919091526001600160a01b039091169063a9059cbb906044016020604051808303816000875af1158015611307573d6000803e3d6000fd5b505050506040513d601f19601f8201168201806040525081019061132b9190611b8d565b6113475760405162461bcd60e51b81526004016106d990611baa565b6113b8565b600985015460068601546040516323b872dd60e01b81526001600160a01b03909216916323b872dd916113859130913391600401611bed565b600060405180830381600087803b15801561139f57600080fd5b505af11580156113b3573d6000803e3d6000fd5b505050505b81600960008282546113ca9190611ca5565b909155505060408051898152602081018590527f040cee90ee4799897c30ca04e5feb6fa43dbba9b6d084b4b257cdafd84ba013e910160405180910390a160408051898152602081018490527fd12311b7b875abd767421f939268ef55b7ab02f900a85d650caddca6f6ccf719910160405180910390a150505060098201805460ff60b01b1916600160b01b1781556007909201546001600160a01b03166000908152600360205260409020805460ff1916905550805460ff60a81b19169055505050565b6000818152600160205260409020600901548190600160a81b900460ff166114c95760405162461bcd60e51b81526004016106d990611c11565b60008281526001602052604090206005810154421180156114f657506009810154600160b01b900460ff16155b6115515760405162461bcd60e51b815260206004820152602660248201527f4c6f616e206973207374696c6c20616374697665206f7220616c7265616479206044820152651c995c185a5960d21b60648201526084016106d9565b60088101546001600160a01b031633146115b95760405162461bcd60e51b8152602060048201526024808201527f4f6e6c7920746865206c656e6465722063616e20636c61696d20636f6c6c6174604482015263195c985b60e21b60648201526084016106d9565b6009810154600160a01b900460ff161561166b576009810154600682015460405163a9059cbb60e01b815233600482015260248101919091526001600160a01b039091169063a9059cbb906044016020604051808303816000875af1158015611626573d6000803e3d6000fd5b505050506040513d601f19601f8201168201806040525081019061164a9190611b8d565b6116665760405162461bcd60e51b81526004016106d990611baa565b6116d7565b600981015460068201546040516323b872dd60e01b81526001600160a01b03909216916323b872dd916116a49130913391600401611bed565b600060405180830381600087803b1580156116be57600080fd5b505af11580156116d2573d6000803e3d6000fd5b505050505b60098101805460ff60a81b1916905560078101546001600160a01b03166000908152600260205260408120805460019290611713908490611ca5565b909155505060078101546001600160a01b0316600090815260036020908152604091829020805460ff19169055815185815233918101919091527f61d735473f91ca0fda252f59bdc94a94d3dbbd9da9170a39673003030c21f4589101610a96565b61177d611864565b6117e7816001600160a01b03166000818152600460205260408120805460ff191660019081179091556005805491820181559091527f036b6384b5eca791c62761152d0c79bb0604c104a5fb6f4eb0703f3154bb3db00180546001600160a01b0319169091179055565b6040516001600160a01b03821681527f7db05e63d635a68c62fd7fd8f3107ae8ab584a383e102d1bd8a40f4c977e465f9060200160405180910390a150565b61182e611864565b6001600160a01b03811661185857604051631e4fbdf760e01b8152600060048201526024016106d9565b61186181611891565b50565b6000546001600160a01b031633146108d05760405163118cdaa760e01b81523360048201526024016106d9565b600080546001600160a01b038381166001600160a01b0319831681178455604051919092169283917f8be0079c531659141344cd1fd0a4f28419497f9722a3daafe3b4186f6b6457e09190a35050565b604051806101a001604052806000815260200160008152602001600081526020016000815260200160008152602001600081526020016000815260200160006001600160a01b0316815260200160006001600160a01b0316815260200160006001600160a01b031681526020016000151581526020016000151581526020016000151581525090565b80356001600160a01b038116811461198157600080fd5b919050565b60006020828403121561199857600080fd5b6119a18261196a565b9392505050565b6000602082840312156119ba57600080fd5b5035919050565b805182526020810151602083015260408101516040830152606081015160608301526080810151608083015260a081015160a083015260c081015160c083015260e0810151611a1b60e08401826001600160a01b03169052565b50610100818101516001600160a01b039081169184019190915261012080830151909116908301526101408082015115159083015261016080820151151590830152610180908101511515910152565b6101a08101611a7a82846119c1565b92915050565b801515811461186157600080fd5b600080600080600080600060e0888a031215611aa957600080fd5b87359650602088013595506040880135945060608801359350611ace6080890161196a565b925060a0880135611ade81611a80565b8092505060c0880135905092959891949750929550565b6020808252825182820181905260009190848201906040850190845b81811015611b3857611b248385516119c1565b928401926101a09290920191600101611b11565b50909695505050505050565b60208082526029908201527f4f6e6c792074686520626f72726f7765722063616e20706572666f726d20746860408201526834b99030b1ba34b7b760b91b606082015260800190565b600060208284031215611b9f57600080fd5b81516119a181611a80565b60208082526023908201527f4661696c656420746f207472616e7366657220455243323020636f6c6c6174656040820152621c985b60ea1b606082015260800190565b6001600160a01b039384168152919092166020820152604081019190915260600190565b6020808252601290820152714c6f616e206973206e6f742061637469766560701b604082015260600190565b634e487b7160e01b600052601160045260246000fd5b600060018201611c6557611c65611c3d565b5060010190565b8082028115828204841417611a7a57611a7a611c3d565b600082611ca057634e487b7160e01b600052601260045260246000fd5b500490565b80820180821115611a7a57611a7a611c3d565b634e487b7160e01b600052604160045260246000fd5b634e487b7160e01b600052603260045260246000fd5b81810381811115611a7a57611a7a611c3d56fea26469706673582212200259b2d2afeec03e70de099ac8e8f84962dd0fbbed2de1b964d6f5f108caf8e264736f6c63430008180033036b6384b5eca791c62761152d0c79bb0604c104a5fb6f4eb0703f3154bb3db0",
    "linkReferences": {}
  },
  "methodIdentifiers": {
    "MAX_INTEREST_RATE()": "34855d14",
    "MAX_LOAN_AMOUNT()": "ceba1794",
    "MIN_INTEREST_RATE()": "c918efec",
    "MIN_LOAN_AMOUNT()": "96fa212f",
    "SERVICE_FEE_PERCENTAGE()": "44cd1309",
    "accepted_collaterals(uint256)": "3b81bc34",
    "accepteddCollaterals(address)": "7f4bc030",
    "addCollateral(address)": "f0d2d5a8",
    "claimCollateral(uint256)": "c49785b4",
    "createLoan(uint256,uint256,uint256,uint256,address,bool,uint256)": "8ca7e594",
    "dao()": "4162169f",
    "defaulters(address)": "58056006",
    "fundLoan(uint256)": "846b909a",
    "getAllLoans()": "a5bfd16a",
    "getLoanInfo(uint256)": "0714012c",
    "loanCount()": "ce63094d",
    "loans(uint256)": "e1ec3c68",
    "outstanding(address)": "de58bafa",
    "owner()": "8da5cb5b",
    "renounceOwnership()": "715018a6",
    "repayLoan(uint256)": "ab7b1c89",
    "setadaoaddress(address)": "04d91445",
    "totalServiceCharges()": "859a5a6f",
    "transferOwnership(address)": "f2fde38b",
    "treasuryAddress()": "c5f956af",
    "withdrawFunds(uint256)": "155dd5ee"
  },
  "id": 43
}